:020000040000FA
:100000000C9463000C948B000C948B000C948B006C
:100010000C948B000C948B000C948B000C948B0034
:100020000C948B000C948B000C948B000C948B0024
:100030000C948B000C948B000C948B000C948B0014
:100040000C9425050C948B000C948B000C948B0065
:100050000C948B000C948B000C948B000C948B00F4
:100060000C946F050C948B00000000002400270006
:100070002A0000000000250028002B0000000000DE
:1000800023002600290004040404040404040202DA
:100090000202020203030303030301020408102007
:1000A0004080010204081020010204081020000012
:1000B0000008000201000003040700000000000027
:1000C0000000CA060F0B11241FBECFEFD8E0DEBF21
:1000D000CDBF23E0A8EDB1E001C01D92A633B20769
:1000E000E1F711E0A0E0B1E0EEE0FBE102C0059035
:1000F0000D92A83DB107D9F710E0C2E6D0E004C0E8
:100100002197FE010E94790BC136D107C9F70E94E1
:100110004C070C947A0D0C94000096E0899FD00156
:100120001124A555BD4F90967C936E935F9791E0F7
:1001300091969C939197E0911803F09119039091F7
:100140001703992339F0309751F0811108C080913D
:10015000C7020994309719F05C968C91FACF0895F4
:10016000CF92DF92EF92FF920F931F9396E0899FB9
:10017000F0011124E555FD4F11A2278D30A121304A
:10018000310551F178F02230310509F451C02330A6
:10019000310509F452C01F910F91FF90EF90DF904D
:1001A000CF9008956623B9F361E070E00E948D005E
:1001B0002FB7F89480919B0290919C02A0919D0290
:1001C000B0919E022FBF8093030390930403A093EA
:1001D0000503B0930603DFCF9FB7F894C0909B024E
:1001E000D0909C02E0909D02F0909E029FBF0091F3
:1001F0000303109104032091050330910603C01AF4
:10020000D10AE20AF30A009115031091160330E0B7
:1002100020E00C151D052E053F0550F462E070E04E
:100220001F910F91FF90EF90DF90CF900C948D0075
:100230006111B1CF63E070E0F3CF70E060E0F0CF28
:1002400008950895AF92BF92CF92DF92EF92FF92FE
:100250000F931F93CF93DF936C017B018B01040FEE
:10026000151FEB015E01AE18BF08C017D10759F08A
:100270006991D601ED91FC910190F081E02DC601CC
:100280000995892B79F7C501DF91CF911F910F91C6
:10029000FF90EF90DF90CF90BF90AF9008958330A4
:1002A00081F028F4813099F08230A9F008958730E8
:1002B000A9F08830C9F08430B1F4809180008F7D3E
:1002C00003C0809180008F7780938000089584B56B
:1002D0008F7784BD089584B58F7DFBCF8091B0006A
:1002E0008F778093B00008958091B0008F7DF9CF13
:1002F000CF93DF93282F30E0F901E255FF4F84912F
:10030000F901E656FF4FD491F901EA57FF4FC49126
:10031000CC23A1F081110E944F01EC2FF0E0EE0FF1
:10032000FF1FE458FF4FA591B491EC91ED2381E0BC
:1003300090E009F480E0DF91CF91089580E090E0B3
:10034000FACF862F0C9478011F93CF93DF93282F39
:1003500030E0F901E255FF4F8491F901E656FF4F75
:10036000D491F901EA57FF4FC491CC23A9F0162F7D
:1003700081110E944F01EC2FF0E0EE0FFF1FEE58AD
:10038000FF4FA591B4918FB7F894EC91111108C06B
:10039000D095DE23DC938FBFDF91CF911F9108951D
:1003A000DE2BF8CF862F642F0C94A401CF93DF931C
:1003B00090E0FC01E656FF4F24918A579F4FFC01C5
:1003C00084918823C9F090E0880F991FFC01E859B7
:1003D000FF4FA591B491FC01EE58FF4FC591D49108
:1003E00061110DC09FB7F8948C91209582238C9356
:1003F0008881282328839FBFDF91CF9108956230A1
:1004000051F49FB7F8943C91822F809583238C936D
:10041000E8812E2BEFCF8FB7F894EC912E2B2C93F5
:100420008FBFEACF862F642F0C94D6013FB7F89484
:1004300080918B0290918C02A0918D02B0918E02DE
:1004400026B5A89B05C02F3F19F00196A11DB11D2F
:100450003FBFBA2FA92F982F8827BC01CD01620F6B
:10046000711D811D911D42E0660F771F881F991F26
:100470004A95D1F708958F929F92AF92BF92CF92F3
:10048000DF92EF92FF924B015C010E9416026B011A
:100490007C010E9416026C197D098E099F09683E35
:1004A000734081059105A8F321E0821A9108A10803
:1004B000B10888EEC80E83E0D81EE11CF11C81143F
:1004C0009104A104B10429F7FF90EF90DF90CF9041
:1004D000BF90AF909F908F90089520914002260F7B
:1004E0003327331F21323105ECF420916402FC01E3
:1004F00090E080E0243069F082E00895A09140020D
:100500002191AC01405E5D4FA40FB52FB11D2C931E
:100510000196861798F380914002680F609340021D
:1005200080E0089581E008951092640281E0809354
:1005300066021092650261E082E10E94A40161E01E
:1005400083E10E94A401E9EBF0E080818E7F80834B
:1005500080818D7F808388E48093B80085E48093D8
:10056000BC000895CF93DF9391E090931F028823FE
:10057000B9F0C091B800D091BA008091BC008A7BDC
:100580008093BC0060E082E10E94A40160E083E10E
:100590000E94A4010E949402D093BA00C093B800B4
:1005A000DF91CF9108950895E09196028091950290
:1005B000E81730F4F0E0E650FE4F808190E00895B7
:1005C0008FEF9FEF089590919602809195022FEF03
:1005D0003FEF981748F4E92FF0E0E650FE4F2081F6
:1005E00030E09F5F90939602C90108958091950233
:1005F00090919602891B990B0895CF92DF92EF920A
:10060000FF920F931F93CF93DF937C01CB018A015D
:100610002091F901222389F0EB016B01C40ED51E54
:10062000CC15DD0569F06991D701ED91FC91019040
:10063000F081E02DC7010995F3CF642F0E946D0270
:10064000C801DF91CF911F910F91FF90EF90DF9044
:10065000CF900895CF93DF931F92CDB7DEB7698314
:100660002091F9012223F9F020919302203258F0D1
:1006700021E030E0FC013383228390E080E00F90A2
:10068000DF91CF91089580919402E82FF0E0E75236
:10069000FE4F998190838F5F8093940280939302A1
:1006A00081E090E0ECCF61E0CE0101960E946D0206
:1006B000F7CFCF92DF92EF92FF920F931F93CF93DA
:1006C000DF93FC01C48121E02093F901C093D8019C
:1006D00010929402109293028385682B8FE992E026
:1006E0000E942A03D0919302D13208F092C00E9456
:1006F00016026B017C0180916402811165C082E069
:100700008093640281E0809366028FEF809363029E
:1007100010928802D0938702A9EDB1E0E7E6F2E0FB
:1007200080E0D81385C01092890280918902CC0F95
:10073000C82BC093890280916502813009F07CC08A
:10074000109265020E9416026B017C018091890261
:100750008093BB0080911B0290911C02A0911D020E
:10076000B0911E02892B8A2B8B2B99F00E941602C6
:1007700000911B0210911C0220911D0230911E025B
:100780006C197D098E099F09061717072807390775
:10079000E0F18091BC0083FDD9CF85EC8093BC0053
:1007A0000E9416026B017C0180916402823009F480
:1007B00045C0809163028F3F61F180916302803276
:1007C00041F18091630225C080911B0290911C022F
:1007D000A0911D02B0911E02892B8A2B8B2B09F44C
:1007E0008ACF0E94160200911B0210911C022091D8
:1007F0001D0230911E026C197D098E099F09061792
:1008000017072807390708F076CF80911A020E944F
:10081000B20210929402109293021092F901DF91A9
:10082000CF911F910F91FF90EF90DF90CF9008959F
:100830009D9191938F5F75CF85EEB0CF80911B0214
:1008400090911C02A0911D02B0911E02892B8A2B4F
:100850008B2B09F4A9CF0E94160200911B02109164
:100860001C0220911D0230911E026C197D098E0917
:100870009F09061717072807390708F095CFC5CF36
:10088000089590E080E008950F931F93CF938C011B
:10089000C62F0E9459036C2F6460C8010E9459033F
:1008A0006C2F6B7FC8010E94590383EC90E0019785
:1008B000F1F7CF911F910F9108950F931F93CF934D
:1008C000DF938C01D62FC42F607F642B0E944404D9
:1008D00080E1D89FB00111246C2BC801DF91CF912A
:1008E0001F910F910C94440440E061E086E293E094
:1008F0000E945D048BE39FE10197F1F70895CF9388
:10090000DF93CDB7DEB728970FB6F894DEBF0FBEE2
:10091000CDBF98E0E0E2F1E0DE01119601900D928A
:100920009A95E1F790912E03961708F46FEF262F12
:1009300030E0220F331F41E050E04C0F5D1F240FC9
:10094000351FF9016081680F606840E086E293E03E
:1009500028960FB6F894DEBF0FBECDBFDF91CF91C2
:100960000C945D0441E00E945D0481E090E00895F4
:10097000FC0101900020E9F73197AF01481B590BAA
:10098000BC0186E293E00C9422010F931F93CF9356
:10099000DF93EC0188819981009759F02A813B818E
:1009A0002617370730F081E0DF91CF911F910F912B
:1009B00008958B016F5F7F4F0E94A40C009759F040
:1009C000998388831B830A832C813D81232B59F7CC
:1009D000FC011082E8CF80E0E7CF85ED8093BC007A
:1009E00080911B0290911C02A0911D02B0911E02E9
:1009F0000796A11DB11D23E0B695A79597958795FC
:100A00002A95D1F72091BC0024FD03C01092640206
:100A1000089540911B0250911C0260911D0270913B
:100A20001E02452B462B472B69F30097A105B10504
:100A300041F025E32A95F1F700000197A109B109DA
:100A4000E1CF80911A020C94B2021F920F920FB65E
:100A50000F9211242F933F938F939F93AF93BF9344
:100A600080919B0290919C02A0919D02B0919E0268
:100A700030918A0223E0230F2D3758F50196A11DEE
:100A8000B11D20938A0280939B0290939C02A093B5
:100A90009D02B0939E0280918B0290918C02A09156
:100AA0008D02B0918E020196A11DB11D80938B0223
:100AB00090938C02A0938D02B0938E02BF91AF9160
:100AC0009F918F913F912F910F900FBE0F901F908C
:100AD000189526E8230F0296A11DB11DD2CF1F92B3
:100AE0000F920FB60F9211242F933F934F935F9362
:100AF0006F937F938F939F93AF93BF93EF93FF93E6
:100B00008091B900887F803609F44AC0F0F58832B8
:100B100009F4A7C018F5803109F49BC0B8F4882304
:100B200009F4F9C0883009F494C0FF91EF91BF91A6
:100B3000AF919F918F917F916F915F914F913F9175
:100B40002F910F900FBE0F901F901895883109F4C8
:100B500088C0803251F78093630214C0803409F456
:100B60009DC040F48033B9F38833F9F68093630273
:100B700085ECB0C0803509F485C0883509F496C08D
:100B8000883499F60E94ED04D0CF883909F48CC0DE
:100B900038F5883729F050F4883611F0803729F677
:100BA00083E0809364021092620257C0883809F48F
:100BB0007BC0803919F0803809F0B7CF809162028C
:100BC000803208F071C0E091620281E08E0F809364
:100BD00062028091BB00F0E0EE5BFD4F80833DC080
:100BE000803B39F0E0F4803A09F479C0883A09F0A2
:100BF0009CCF84E0809364021092410210924002E4
:100C0000E0919102F0919202099580914002811148
:100C10000FC081E0809340021092200209C0803C06
:100C200009F4A6CF883C09F4A3CF883B09F07DCF17
:100C3000E091410281E08E0F80934102F0E0E05E9E
:100C4000FD4F80818093BB009091410280914002D2
:100C500029C0809189028093BB0085EC8093BC0001
:100C600064CF9091880280918702981758F5E0919F
:100C7000880281E08E0F80938802F0E0E959FD4FF1
:100C80008081E9CFE091880281E08E0F8093880215
:100C90008091BB00F0E0E959FD4F8083909188027C
:100CA000809187029817C8F285E8D8CFE091880232
:100CB00081E08E0F809388028091BB00F0E0E959BB
:100CC000FD4F80838091660281115CCF81E080932B
:100CD000650284EA8093BC001092640226CF85EC02
:100CE0008093BC001092640280916202803230F4E2
:100CF000E0916202F0E0EE5BFD4F108260916202D3
:100D000070E0E0918F02F091900282E492E0099508
:100D1000109262020ACF1092630234CFEF92FF92D8
:100D20000F931F93CF93DF93EC017B0119821882FD
:100D30001B821A821D821C82FB0101900020E9F7B0
:100D400031978F01061B170BB8010E94C50428813B
:100D50003981811113C02115310519F0C9010E9493
:100D60001B0C198218821D821C821B821A82DF9141
:100D7000CF911F910F91FF90EF9008951D830C83E9
:100D8000B701C901DF91CF911F910F91FF90EF90B3
:100D90000C94730D1092A2021092A10288EE93E0BF
:100DA000A0E0B0E08093A3029093A402A093A502D8
:100DB000B093A6028CE291E09093A00280939F02F0
:100DC000109229031092280388E491E0909327035E
:100DD0008093260387E280932A0380E180932F0388
:100DE00082E0809330031092310360E571E080E28D
:100DF00093E00E948E066BE771E08AE193E00E9427
:100E00008E061092AD021092B1021092B0021092B2
:100E1000B2028EE391E09093AC028093AB02E7ECD8
:100E2000F2E01082148213821582369683E0E3305A
:100E3000F807B9F786E091E090930E0380930D03D5
:100E400082E091E09093100380930F0384E08093FD
:100E50001103809312038AE091E090930C03809336
:100E60000B038AE090E0909314038093130384EFC4
:100E700091E090931603809315031092190310923A
:100E8000180310920703109208031092090310929E
:100E90000A03109217030895CF93DF93CDB7DEB7FF
:100EA000A3970FB6F894DEBF0FBECDBF789484B57C
:100EB000826084BD84B5816084BD85B5826085BD56
:100EC00085B5816085BD80916E00816080936E00E4
:100ED00010928100809181008260809381008091D6
:100EE0008100816080938100809180008160809387
:100EF00080008091B10084608093B1008091B00047
:100F000081608093B00080917A00846080937A0041
:100F100080917A00826080937A0080917A0081606B
:100F200080937A0080917A00806880937A00109292
:100F3000C1001092960210929502109294021092A3
:100F400093020E94940280E291E090939202809337
:100F5000910281E291E09093900280938F0210922F
:100F60002B0380913003823018F098E090932B038C
:100F700080932E0362E370E080E090E00E943B02E9
:100F80006091310386E293E00E94590368EE73E0BA
:100F900080E090E00E943B0260E386E293E00E94E2
:100FA00044040BE416E4C8010197F1F760E386E21C
:100FB00093E00E944404C8010197F1F760E386E2E0
:100FC00093E00E94440483E592E00197F1F760E228
:100FD00086E293E00E94440460912B03606240E04B
:100FE00086E293E00E945D0484E080932C0340E05D
:100FF0006CE086E293E00E945D040E94740482E04B
:1010000080932D0340E066E086E293E00E945D0459
:1010100040E062E086E293E00E945D048BE39FE1A2
:101020000197F1F788E08093310360E086E293E076
:101030000E945903412C512C320143947AE0872EAF
:10104000912CA12CB12C60E080E00E947F0486E509
:1010500091E00E94B80481E0809317038FB7F89461
:1010600040919B0250919C0260919D0270919E0262
:101070008FBF8091070390910803A0910903B0915D
:101080000A03481B590B6A0B7B0B80911303909149
:101090001403B0E0A0E084179507A607B70708F08F
:1010A00049C110E080911103181760F4E0910D031D
:1010B000F0910E03E10FF11D62E080810E94D601E4
:1010C0001F5FF0CF312C80911203381608F068C0F2
:1010D000032D10E0E0910F03F0911003E00FF11FDA
:1010E00061E080810E94D601E0910F03F09110032E
:1010F000E00FF11F60E080810E94A401D301C201D2
:10110000032C04C0880F991FAA1FBB1F0A94D2F793
:101110006C019C01209530953BA32AA3212C809142
:101120001103281630F5E22CF12CE0910D03F0911B
:101130000E03EE0DFF1D80810E947801F7013496A9
:10114000892B61F4EE0FFF1FE555FD4F80819181E2
:101150008C299D29918380832394E1CFEE0FFF1F7B
:10116000E555FD4F808191812AA13BA182239323E4
:10117000F1CFE0910F03F0911003E00FF11F61E058
:1011800080810E94A40180910F0390911003080FA9
:10119000191F60E0F80180810E94D601339493CF3B
:1011A0003BEAE32E32E0F32E8701F801878D90A110
:1011B000892B31F4148E2FEF3FEF368F258F11A23C
:1011C0000A5F1F4F32E0073E130779F7312C8091F9
:1011D0001103381608F055C0212C832D90E0880F9C
:1011E000991FFC01ED54FD4FFBA3EAA320911203CC
:1011F000221608F044C0EAA1FBA160817181022C93
:1012000002C0769567950A94E2F7329E9001112408
:10121000220D311DEBEAF2E080E0458D568D24175A
:10122000350709F4B0C18F5F36968A30B1F760FF99
:1012300024C0EBEAF2E090E080E0448D411118C058
:10124000E0910B03F0910C03E20FF31F408156E095
:10125000589FF001599FF00D1124E555FD4F448F23
:10126000368F258F10A2178E61E00E94B00005C056
:10127000019636968A30910501F72394B7CF3394BF
:10128000A6CF80E0F70191A19111892FF6E0EF0E32
:10129000F11C0E151F05B1F79FB7F89440919B0202
:1012A00050919C0260919D0270919E029FBF40935D
:1012B0000703509308036093090370930A0388237C
:1012C000C9F18091CC028823A9F18091CA02909142
:1012D000CB02019779F58091C70281112EC08091D0
:1012E000990290919A02059709F091C10E947404A5
:1012F00020911E0330911F038091240390912503B8
:101300002817390709F077C080911A0390911B03C1
:101310006091200370912103009709F436C1611593
:10132000710509F065C0232B09F43DC1FC018081E2
:1013300090E036C110921703D2CF89831A820091B0
:101340001E0310911F030F5F1F4FB8018AE193E046
:101350000E94C504882399F020911A0330911B0341
:1013600080911E0390911F03BE016F5F7F4F820F1C
:10137000931F0E94730D10931F0300931E0300918F
:10138000990210919A0261E0802F0E947F0480915F
:101390001E0390911F030817190730F4E0911A03F8
:1013A000F0911B03309709F510929702E7E9F2E0FC
:1013B00041E0608186E293E00E945D0464E670E0B3
:1013C00080E090E00E943B0261E0802F0E947F0459
:1013D00041E06AE286E293E00E945D040F5F1F4FE6
:1013E00010939A02009399027ACFE00FF11FE0CF99
:1013F0000E946A0DD5C060E080E00E947F048DE607
:1014000091E00E94B80489E791E00E94B8048091BD
:1014100098028F5F80939802813009F075C068EE62
:1014200073E080E090E00E943B020E9474048CE72D
:1014300091E00E94B80480919802833009F0BDC009
:101440000E94740481EB91E00E94B80468EE73E09E
:1014500080E090E00E943B022FE030E030930101F9
:1014600020930001809100019091010197FD70C0CF
:1014700060E080E00E947F0487EC91E00E94B80465
:10148000C0900001D09001010D2C000CEE08FF0867
:10149000F7FE48C041E06DE286E293E00E945D0401
:1014A00022273327A9012C193D094E095F0919A2EA
:1014B0008E010F5D1F4FCA01B901A50194010E9461
:1014C000570B605DF80162938F01211531054105CD
:1014D000510589F70115110519F0C8010E94B804DA
:1014E00085ED91E00E94B804809100019091010186
:1014F0000197909301018093000168EE73E080E012
:1015000090E00E943B02AECF823009F094CF68EEAB
:1015100073E080E090E00E943B020E94740487E93F
:1015200091E087CFA701960119A28E010F5D1F4F91
:10153000CA01B901A50194010E94570B605DF80131
:1015400062938F01211531054105510589F7C2CFFD
:101550002FE030E0309301012093000110929802B7
:1015600068EE73E080E090E00E943B020E94740409
:1015700024C010921F0310921E036BE771E0C90193
:101580000E94730D44C0617070CE6115710559F0F1
:10159000232B49F0FB01808190E091958195910981
:1015A000892B09F028CF60E080E00E947F0485E667
:1015B00091E00E94B8041092980268EE73E080E017
:1015C00090E00E943B020E94740410929A021092D2
:1015D000990270E060E08AE193E00E94C5042091E6
:1015E0001A0330911B038111C4CF2115310519F065
:1015F000C9010E941B0C10921B0310921A03109237
:101600001F0310921E0310921D0310921C0380E012
:1016100090E0892B09F417CD0E94000014CD809131
:101620001A0390911B03009711F00E941B0C8091EC
:10163000200390912103009711F00C941B0C089546
:101640002F923F924F925F926F927F928F929F92D2
:10165000AF92BF92CF92DF92EF92FF920F931F93C0
:10166000CF93DF93CDB7DEB7CA1BDB0B0FB6F89471
:10167000DEBF0FBECDBF09942A88398848885F84B1
:101680006E847D848C849B84AA84B984C884DF8022
:10169000EE80FD800C811B81AA81B981CE0FD11D06
:1016A0000FB6F894DEBF0FBECDBFED010895A1E2E5
:1016B0001A2EAA1BBB1BFD010DC0AA1FBB1FEE1FCC
:1016C000FF1FA217B307E407F50720F0A21BB30B17
:1016D000E40BF50B661F771F881F991F1A9469F793
:1016E00060957095809590959B01AC01BD01CF01EF
:1016F0000895EE0FFF1F0590F491E02D09940F93CC
:101700001F93CF93DF938230910510F482E090E035
:10171000E0913403F091350330E020E0B0E0A0E048
:10172000309799F42115310509F44AC0281B390B6B
:1017300024303105D8F58A819B816115710589F1C5
:10174000FB0193838283FE0111C04081518102819C
:10175000138148175907E0F04817590799F4109773
:1017600061F012960C93129713961C933296CF0148
:10177000DF91CF911F910F9108950093340310933F
:101780003503F4CF2115310551F04217530738F0D6
:10179000A901DB019A01BD01DF01F801C1CFEF0111
:1017A000F9CF9093350380933403CDCFFE01E20F40
:1017B000F31F819391932250310939832883D7CF26
:1017C0002091320330913303232B41F420911C01EB
:1017D00030911D01309333032093320320911A017D
:1017E00030911B012115310541F42DB73EB74091D1
:1017F0001E0150911F01241B350BE0913203F09123
:101800003303E217F307A0F42E1B3F0B2817390709
:1018100078F0AC014E5F5F4F2417350748F04E0F4C
:101820005F1F5093330340933203819391939FCF73
:10183000F0E0E0E09CCFCF93DF930097E9F0FC016C
:10184000329713821282A0913403B0913503ED01D7
:1018500030E020E01097A1F420813181820F931FA6
:1018600020913203309133032817390709F061C002
:10187000F0933303E0933203DF91CF910895EA01AF
:10188000CE17DF07E8F54A815B819E0141155105BE
:10189000B1F7E901FB83EA8349915991C40FD51F40
:1018A000EC17FD0761F4808191810296840F951FEA
:1018B000E90199838883828193819B838A83F0E005
:1018C000E0E012968D919C9113970097B9F52D91B8
:1018D0003C911197CD010296820F931F2091320304
:1018E000309133032817390739F6309751F51092A4
:1018F000350310923403B0933303A0933203BCCF6B
:10190000D383C28340815181840F951FC817D907A3
:1019100061F44E5F5F4F88819981480F591F518351
:1019200040838A819B81938382832115310509F04D
:10193000B0CFF0933503E09334039ECFFD01DC017B
:10194000C0CF13821282D7CFB0E0A0E0EAEAFCE079
:101950000C94220B8C01009751F4CB010E947F0B59
:101960008C01C801CDB7DEB7E0E10C943E0BFC0161
:10197000E60FF71F9C0122503109E217F30708F424
:101980009DC0D901CD91DC911197C617D70798F06A
:10199000C530D10530F3CE0104978617970708F3B9
:1019A000C61BD70B2297C193D1936D937C93CF0124
:1019B0000E941B0CD6CF5B01AC1ABD0A4C018C0EE9
:1019C0009D1EA0913403B0913503512C412CF12C74
:1019D000E12C109731F580913203909133038815F3
:1019E000990509F05CC04616570608F058C080916A
:1019F0001A0190911B01009741F48DB79EB7409159
:101A00001E0150911F01841B950BE817F90708F080
:101A100055C0F0933303E0933203F901718360837F
:101A2000A0CF8D919C91119712966C90129713965E
:101A30007C901397A815B90559F56C0142E0C40EC6
:101A4000D11CCA14DB0420F1AC014A195B09DA018C
:101A50001296159780F06282738251834083D90178
:101A60006D937C93E114F10471F0D7011396FC930C
:101A7000EE93129776CF22968C0F9D1FF9019183DA
:101A80008083F301EFCFF0933503E093340369CF04
:101A90004816590608F42C017D01D3019ACFCB01D9
:101AA0000E947F0B7C01009749F0AE01B8010E94B3
:101AB000610DC8010E941B0C870153CF10E000E0AC
:101AC00050CFFB01DC0102C001900D92415050400B
:101AD000D8F70895FB01DC018D9101908019011068
:101AE000D9F3990B0895FB01DC0101900D920020C0
:101AF000E1F7089510E0C2E6D0E004C0FE010E94C4
:101B0000790B2196C336D107C9F7F894FFCF0F00A0
:101B100006070809020304053132334134353642E1
:101B2000373839432A302344000036038000000050
:101B3000400014005400000000002A03FD0241048C
:101B4000D302F602E302D402000000001202D20126
:101B5000A10100000000B20422014104400431321E
:101B600031303200456E7465722050617373776F47
:101B7000726400636F727265637400496E20436F14
:101B8000727265637420000D0A004F6E6C792074C8
:101B9000776F20617474656D707473206C65667402
:101BA0002E2E2E20004F6E6C79206F6E6520617492
:101BB00074656D7074206C6566742E2E2E2000592D
:101BC0006F752068617665206E6F20617474656D35
:101BD000707473200054727920616761696E2069A6
:061BE0006E3A00730000E4
:107E0000112484B714BE81FFF0D085E080938100F7
:107E100082E08093C00088E18093C10086E0809377
:107E2000C20080E18093C4008EE0C9D0259A86E02C
:107E300020E33CEF91E0309385002093840096BBD3
:107E4000B09BFECF1D9AA8958150A9F7CC24DD24C4
:107E500088248394B5E0AB2EA1E19A2EF3E0BF2EE7
:107E6000A2D0813461F49FD0082FAFD0023811F036
:107E7000013811F484E001C083E08DD089C08234E0
:107E800011F484E103C0853419F485E0A6D080C0E4
:107E9000853579F488D0E82EFF2485D0082F10E0AE
:107EA000102F00270E291F29000F111F8ED06801E7
:107EB0006FC0863521F484E090D080E0DECF843638
:107EC00009F040C070D06FD0082F6DD080E0C81688
:107ED00080E7D80618F4F601B7BEE895C0E0D1E017
:107EE00062D089930C17E1F7F0E0CF16F0E7DF06D8
:107EF00018F0F601B7BEE89568D007B600FCFDCFD4
:107F0000A601A0E0B1E02C9130E011968C91119780
:107F100090E0982F8827822B932B1296FA010C0160
:107F200087BEE89511244E5F5F4FF1E0A038BF0790
:107F300051F7F601A7BEE89507B600FCFDCF97BE46
:107F4000E89526C08437B1F42ED02DD0F82E2BD052
:107F50003CD0F601EF2C8F010F5F1F4F84911BD097
:107F6000EA94F801C1F70894C11CD11CFA94CF0C13
:107F7000D11C0EC0853739F428D08EE10CD085E9AC
:107F80000AD08FE07ACF813511F488E018D01DD067
:107F900080E101D065CF982F8091C00085FFFCCF94
:107FA0009093C60008958091C00087FFFCCF809118
:107FB000C00084FD01C0A8958091C6000895E0E648
:107FC000F0E098E1908380830895EDDF803219F02E
:107FD00088E0F5DFFFCF84E1DECF1F93182FE3DFCA
:107FE0001150E9F7F2DF1F91089580E0E8DFEE27F6
:047FF000FF270994CA
:027FFE00040479
:00000001FF
